{
  "_format": "hh-sol-artifact-1",
  "contractName": "MusicFactory",
  "sourceName": "contracts/MusicFactory.sol",
  "abi": [
    {
      "inputs": [],
      "stateMutability": "nonpayable",
      "type": "constructor"
    },
    {
      "anonymous": false,
      "inputs": [
        {
          "indexed": true,
          "internalType": "address",
          "name": "account",
          "type": "address"
        },
        {
          "indexed": true,
          "internalType": "address",
          "name": "operator",
          "type": "address"
        },
        {
          "indexed": false,
          "internalType": "bool",
          "name": "approved",
          "type": "bool"
        }
      ],
      "name": "ApprovalForAll",
      "type": "event"
    },
    {
      "anonymous": false,
      "inputs": [
        {
          "indexed": false,
          "internalType": "address",
          "name": "account",
          "type": "address"
        },
        {
          "indexed": false,
          "internalType": "uint256",
          "name": "amount",
          "type": "uint256"
        },
        {
          "indexed": false,
          "internalType": "string",
          "name": "uri",
          "type": "string"
        }
      ],
      "name": "MusicMinted",
      "type": "event"
    },
    {
      "anonymous": false,
      "inputs": [
        {
          "indexed": true,
          "internalType": "address",
          "name": "operator",
          "type": "address"
        },
        {
          "indexed": true,
          "internalType": "address",
          "name": "from",
          "type": "address"
        },
        {
          "indexed": true,
          "internalType": "address",
          "name": "to",
          "type": "address"
        },
        {
          "indexed": false,
          "internalType": "uint256[]",
          "name": "ids",
          "type": "uint256[]"
        },
        {
          "indexed": false,
          "internalType": "uint256[]",
          "name": "values",
          "type": "uint256[]"
        }
      ],
      "name": "TransferBatch",
      "type": "event"
    },
    {
      "anonymous": false,
      "inputs": [
        {
          "indexed": true,
          "internalType": "address",
          "name": "operator",
          "type": "address"
        },
        {
          "indexed": true,
          "internalType": "address",
          "name": "from",
          "type": "address"
        },
        {
          "indexed": true,
          "internalType": "address",
          "name": "to",
          "type": "address"
        },
        {
          "indexed": false,
          "internalType": "uint256",
          "name": "id",
          "type": "uint256"
        },
        {
          "indexed": false,
          "internalType": "uint256",
          "name": "value",
          "type": "uint256"
        }
      ],
      "name": "TransferSingle",
      "type": "event"
    },
    {
      "anonymous": false,
      "inputs": [
        {
          "indexed": false,
          "internalType": "string",
          "name": "value",
          "type": "string"
        },
        {
          "indexed": true,
          "internalType": "uint256",
          "name": "id",
          "type": "uint256"
        }
      ],
      "name": "URI",
      "type": "event"
    },
    {
      "inputs": [
        {
          "internalType": "address",
          "name": "account",
          "type": "address"
        },
        {
          "internalType": "uint256",
          "name": "id",
          "type": "uint256"
        }
      ],
      "name": "balanceOf",
      "outputs": [
        {
          "internalType": "uint256",
          "name": "",
          "type": "uint256"
        }
      ],
      "stateMutability": "view",
      "type": "function"
    },
    {
      "inputs": [
        {
          "internalType": "address[]",
          "name": "accounts",
          "type": "address[]"
        },
        {
          "internalType": "uint256[]",
          "name": "ids",
          "type": "uint256[]"
        }
      ],
      "name": "balanceOfBatch",
      "outputs": [
        {
          "internalType": "uint256[]",
          "name": "",
          "type": "uint256[]"
        }
      ],
      "stateMutability": "view",
      "type": "function"
    },
    {
      "inputs": [
        {
          "internalType": "uint256",
          "name": "tokenId",
          "type": "uint256"
        }
      ],
      "name": "getTokenURI",
      "outputs": [
        {
          "internalType": "bytes",
          "name": "uri",
          "type": "bytes"
        }
      ],
      "stateMutability": "view",
      "type": "function"
    },
    {
      "inputs": [
        {
          "internalType": "address",
          "name": "account",
          "type": "address"
        },
        {
          "internalType": "address",
          "name": "operator",
          "type": "address"
        }
      ],
      "name": "isApprovedForAll",
      "outputs": [
        {
          "internalType": "bool",
          "name": "",
          "type": "bool"
        }
      ],
      "stateMutability": "view",
      "type": "function"
    },
    {
      "inputs": [
        {
          "internalType": "uint256",
          "name": "_amount",
          "type": "uint256"
        },
        {
          "internalType": "string",
          "name": "_uri",
          "type": "string"
        }
      ],
      "name": "mintMusic",
      "outputs": [],
      "stateMutability": "nonpayable",
      "type": "function"
    },
    {
      "inputs": [
        {
          "internalType": "address",
          "name": "from",
          "type": "address"
        },
        {
          "internalType": "address",
          "name": "to",
          "type": "address"
        },
        {
          "internalType": "uint256[]",
          "name": "ids",
          "type": "uint256[]"
        },
        {
          "internalType": "uint256[]",
          "name": "amounts",
          "type": "uint256[]"
        },
        {
          "internalType": "bytes",
          "name": "data",
          "type": "bytes"
        }
      ],
      "name": "safeBatchTransferFrom",
      "outputs": [],
      "stateMutability": "nonpayable",
      "type": "function"
    },
    {
      "inputs": [
        {
          "internalType": "address",
          "name": "from",
          "type": "address"
        },
        {
          "internalType": "address",
          "name": "to",
          "type": "address"
        },
        {
          "internalType": "uint256",
          "name": "id",
          "type": "uint256"
        },
        {
          "internalType": "uint256",
          "name": "amount",
          "type": "uint256"
        },
        {
          "internalType": "bytes",
          "name": "data",
          "type": "bytes"
        }
      ],
      "name": "safeTransferFrom",
      "outputs": [],
      "stateMutability": "nonpayable",
      "type": "function"
    },
    {
      "inputs": [
        {
          "internalType": "address",
          "name": "operator",
          "type": "address"
        },
        {
          "internalType": "bool",
          "name": "approved",
          "type": "bool"
        }
      ],
      "name": "setApprovalForAll",
      "outputs": [],
      "stateMutability": "nonpayable",
      "type": "function"
    },
    {
      "inputs": [
        {
          "internalType": "bytes4",
          "name": "interfaceId",
          "type": "bytes4"
        }
      ],
      "name": "supportsInterface",
      "outputs": [
        {
          "internalType": "bool",
          "name": "",
          "type": "bool"
        }
      ],
      "stateMutability": "view",
      "type": "function"
    },
    {
      "inputs": [],
      "name": "tokenId",
      "outputs": [
        {
          "internalType": "uint256",
          "name": "_value",
          "type": "uint256"
        }
      ],
      "stateMutability": "view",
      "type": "function"
    },
    {
      "inputs": [
        {
          "internalType": "uint256",
          "name": "",
          "type": "uint256"
        }
      ],
      "name": "uri",
      "outputs": [
        {
          "internalType": "string",
          "name": "",
          "type": "string"
        }
      ],
      "stateMutability": "view",
      "type": "function"
    }
  ],
  "bytecode": "0x60806040523480156200001c576000806200001962000212565b50505b5060405180602001604052806000815250620000456301ffc9a760e01b620000a460201b60201c565b6200005681620001cc60201b60201c565b6200006e63d9b67a2660e01b620000a460201b60201c565b62000086630e89341c60e01b620000a460201b60201c565b506200009e6004620001e860201b620019ab1760201c565b62000444565b63ffffffff60e01b817bffffffffffffffffffffffffffffffffffffffffffffffffffffffff191614156200014c576040517f08c379a000000000000000000000000000000000000000000000000000000000815260040180806020018281038252601c8152602001807f4552433136353a20696e76616c696420696e7465726661636520696400000000815250602001915050604051809103906200014962000212565b50505b6001600080837bffffffffffffffffffffffffffffffffffffffffffffffffffffffff19167bffffffffffffffffffffffffffffffffffffffffffffffffffffffff1916815260200190815260200160002060006101000a81620001af62000282565b8160ff02191690831515021790620001c6620002e7565b50505050565b8060039080519060200190620001e49291906200034e565b5050565b60018160000160008282620001fc62000282565b0192505081906200020c620002e7565b50505050565b632a2a7adb598160e01b8152600481016020815285602082015260005b868110156200024f5780860151816040840101526020810190506200022f565b506020828760640184336000905af158600e01573d6000803e3d6000fd5b3d6001141558600a015760016000f35b505050565b6303daa959598160e01b8152836004820152602081602483336000905af158600e01573d6000803e3d6000fd5b3d6001141558600a015760016000f35b8051935060005b6040811015620002e257600081830152602081019050620002c6565b505050565b6322bd64c0598160e01b8152836004820152846024820152600081604483336000905af158600e01573d6000803e3d6000fd5b3d6001141558600a015760016000f35b60005b604081101562000349576000818301526020810190506200032d565b505050565b82806200035a62000282565b600181600116156101000203166002900490600052602060002090601f0160209004810192826200039a5760008562000392620002e7565b505062000407565b82601f10620003c057805160ff19168380011785620003b8620002e7565b505062000407565b82800160010185620003d1620002e7565b5050821562000407579182015b828111156200040657825182620003f4620002e7565b505091602001919060010190620003de565b5b5090506200041691906200041a565b5090565b5b80821115620004405760008160009062000434620002e7565b5050506001016200041b565b5090565b612bac80620004546000396000f3fe608060405234801561001957600080610016612536565b50505b50600436106100b15760003560e01c80633bb3a24d1161007a5780633bb3a24d146104e15780634e1273f41461059157806390a8952014610771578063a22cb4651461085a578063e985e9c5146108b3578063f242432a14610936576100b1565b8062fdd58e146100bf57806301ffc9a71461012a5780630e89341c1461019657806317d70f7c146102465780632eb2c2d614610264575b6000806100bc612536565b50505b610114600480360360408110156100de576000806100db612536565b50505b81019080803573ffffffffffffffffffffffffffffffffffffffff16906020019092919080359060200190929190505050610a69565b6040518082815260200191505060405180910390f35b61017e6004803603602081101561014957600080610146612536565b50505b8101908080357bffffffffffffffffffffffffffffffffffffffffffffffffffffffff19169060200190929190505050610b59565b60405180821515815260200191505060405180910390f35b6101cb600480360360208110156101b5576000806101b2612536565b50505b8101908080359060200190929190505050610bc7565b6040518080602001828103825283818151815260200191508051906020019080838360005b8381101561020b5780820151818401526020810190506101f0565b50505050905090810190601f1680156102385780820380516001836020036101000a031916815260200191505b509250505060405180910390f35b61024e610c87565b6040518082815260200191505060405180910390f35b6104df600480360360a081101561028357600080610280612536565b50505b81019080803573ffffffffffffffffffffffffffffffffffffffff169060200190929190803573ffffffffffffffffffffffffffffffffffffffff169060200190929190803590602001906401000000008111156102e9576000806102e6612536565b50505b82018360208201111561030457600080610301612536565b50505b8035906020019184602083028401116401000000008311171561032f5760008061032c612536565b50505b919080806020026020016040519081016040528093929190818152602001838360200280828437600081840152601f19601f8201169050808301925050505050505091929192908035906020019064010000000081111561039857600080610395612536565b50505b8201836020820111156103b3576000806103b0612536565b50505b803590602001918460208302840111640100000000831117156103de576000806103db612536565b50505b919080806020026020016040519081016040528093929190818152602001838360200280828437600081840152601f19601f8201169050808301925050505050505091929192908035906020019064010000000081111561044757600080610444612536565b50505b8201836020820111156104625760008061045f612536565b50505b8035906020019184600183028401116401000000008311171561048d5760008061048a612536565b50505b91908080601f016020809104026020016040519081016040528093929190818152602001838380828437600081840152601f19601f820116905080830192505050505050509192919290505050610c9a565b005b61051660048036036020811015610500576000806104fd612536565b50505b8101908080359060200190929190505050611160565b6040518080602001828103825283818151815260200191508051906020019080838360005b8381101561055657808201518184015260208101905061053b565b50505050905090810190601f1680156105835780820380516001836020036101000a031916815260200191505b509250505060405180910390f35b61071a600480360360408110156105b0576000806105ad612536565b50505b81019080803590602001906401000000008111156105d6576000806105d3612536565b50505b8201836020820111156105f1576000806105ee612536565b50505b8035906020019184602083028401116401000000008311171561061c57600080610619612536565b50505b919080806020026020016040519081016040528093929190818152602001838360200280828437600081840152601f19601f8201169050808301925050505050505091929192908035906020019064010000000081111561068557600080610682612536565b50505b8201836020820111156106a05760008061069d612536565b50505b803590602001918460208302840111640100000000831117156106cb576000806106c8612536565b50505b919080806020026020016040519081016040528093929190818152602001838360200280828437600081840152601f19601f820116905080830192505050505050509192919290505050611231565b6040518080602001828103825283818151815260200191508051906020019060200280838360005b8381101561075d578082015181840152602081019050610742565b505050509050019250505060405180910390f35b610858600480360360408110156107905760008061078d612536565b50505b8101908080359060200190929190803590602001906401000000008111156107c0576000806107bd612536565b50505b8201836020820111156107db576000806107d8612536565b50505b8035906020019184600183028401116401000000008311171561080657600080610803612536565b50505b91908080601f016020809104026020016040519081016040528093929190818152602001838380828437600081840152601f19601f820116905080830192505050505050509192919290505050611355565b005b6108b16004803603604081101561087957600080610876612536565b50505b81019080803573ffffffffffffffffffffffffffffffffffffffff1690602001909291908035151590602001909291905050506113b7565b005b61091e600480360360408110156108d2576000806108cf612536565b50505b81019080803573ffffffffffffffffffffffffffffffffffffffff169060200190929190803573ffffffffffffffffffffffffffffffffffffffff169060200190929190505050611569565b60405180821515815260200191505060405180910390f35b610a67600480360360a081101561095557600080610952612536565b50505b81019080803573ffffffffffffffffffffffffffffffffffffffff169060200190929190803573ffffffffffffffffffffffffffffffffffffffff1690602001909291908035906020019092919080359060200190929190803590602001906401000000008111156109cf576000806109cc612536565b50505b8201836020820111156109ea576000806109e7612536565b50505b80359060200191846001830284011164010000000083111715610a1557600080610a12612536565b50505b91908080601f016020809104026020016040519081016040528093929190818152602001838380828437600081840152601f19601f820116905080830192505050505050509192919290505050611604565b005b60008073ffffffffffffffffffffffffffffffffffffffff168373ffffffffffffffffffffffffffffffffffffffff161415610af9576040517f08c379a000000000000000000000000000000000000000000000000000000000815260040180806020018281038252602b815260200180612a3c602b913960400191505060405180910390610af6612536565b50505b6001600083815260200190815260200160002060008473ffffffffffffffffffffffffffffffffffffffff1673ffffffffffffffffffffffffffffffffffffffff168152602001908152602001600020610b516125a4565b905092915050565b6000806000837bffffffffffffffffffffffffffffffffffffffffffffffffffffffff19167bffffffffffffffffffffffffffffffffffffffffffffffffffffffff19168152602001908152602001600020600090610bb66125a4565b906101000a900460ff169050919050565b6060600380610bd46125a4565b600181600116156101000203166002900480601f01602080910402602001604051908101604052809291908181526020018280610c0f6125a4565b60018160011615610100020316600290048015610c7b5780601f10610c49576101008083610c3b6125a4565b040283529160200191610c7b565b820191906000526020600020905b81610c606125a4565b81529060010190602001808311610c5757829003601f168201915b50505050509050919050565b600480600001610c956125a4565b905081565b8151835114610cfd576040517f08c379a0000000000000000000000000000000000000000000000000000000008152600401808060200182810382526028815260200180612b636028913960400191505060405180910390610cfa612536565b50505b600073ffffffffffffffffffffffffffffffffffffffff168473ffffffffffffffffffffffffffffffffffffffff161415610d8c576040517f08c379a0000000000000000000000000000000000000000000000000000000008152600401808060200182810382526025815260200180612a906025913960400191505060405180910390610d89612536565b50505b610d946119d1565b73ffffffffffffffffffffffffffffffffffffffff168573ffffffffffffffffffffffffffffffffffffffff161480610dda5750610dd985610dd46119d1565b611569565b5b610e38576040517f08c379a0000000000000000000000000000000000000000000000000000000008152600401808060200182810382526032815260200180612ab56032913960400191505060405180910390610e35612536565b50505b6000610e426119d1565b9050610e528187878787876119e1565b60005b8451811015611043576000858281518110610e6c57fe5b602002602001015190506000858381518110610e8457fe5b60200260200101519050610f12816040518060600160405280602a8152602001612ae7602a91396001600086815260200190815260200160002060008d73ffffffffffffffffffffffffffffffffffffffff1673ffffffffffffffffffffffffffffffffffffffff168152602001908152602001600020610f036125a4565b6119e99092919063ffffffff16565b6001600084815260200190815260200160002060008b73ffffffffffffffffffffffffffffffffffffffff1673ffffffffffffffffffffffffffffffffffffffff1681526020019081526020016000208190610f6c612607565b505050610fd9816001600085815260200190815260200160002060008b73ffffffffffffffffffffffffffffffffffffffff1673ffffffffffffffffffffffffffffffffffffffff168152602001908152602001600020610fcb6125a4565b611aac90919063ffffffff16565b6001600084815260200190815260200160002060008a73ffffffffffffffffffffffffffffffffffffffff1673ffffffffffffffffffffffffffffffffffffffff1681526020019081526020016000208190611033612607565b5050505050806001019050610e55565b508473ffffffffffffffffffffffffffffffffffffffff168673ffffffffffffffffffffffffffffffffffffffff168273ffffffffffffffffffffffffffffffffffffffff167f4a39dc06d4c0dbc64b70af90fd698a233a518aa5d07e595d983b8c0526c8f7fb8787604051808060200180602001838103835285818151815260200191508051906020019060200280838360005b838110156110f35780820151818401526020810190506110d8565b50505050905001838103825284818151815260200191508051906020019060200280838360005b8381101561113557808201518184015260208101905061111a565b5050505090500194505050505060405180910390a4611158818787878787611b3d565b505050505050565b6060600560008381526020019081526020016000208061117e6125a4565b600181600116156101000203166002900480601f016020809104026020016040519081016040528092919081815260200182806111b96125a4565b600181600116156101000203166002900480156112255780601f106111f35761010080836111e56125a4565b040283529160200191611225565b820191906000526020600020905b8161120a6125a4565b8152906001019060200180831161120157829003601f168201915b50505050509050919050565b60608151835114611296576040517f08c379a0000000000000000000000000000000000000000000000000000000008152600401808060200182810382526029815260200180612b3a6029913960400191505060405180910390611293612536565b50505b6000835167ffffffffffffffff811180156112b9576000806112b6612536565b50505b506040519080825280602002602001820160405280156112e85781602001602082028036833780820191505090505b50905060005b845181101561134a5761132785828151811061130657fe5b602002602001015185838151811061131a57fe5b6020026020010151610a69565b82828151811061133357fe5b6020026020010181815250508060010190506112ee565b508091505092915050565b60008190506113775a61136661266c565b6113706004611f18565b8584611f2d565b80600560006113866004611f18565b815260200190815260200160002090805190602001906113a79291906126c9565b506113b260046119ab565b505050565b8173ffffffffffffffffffffffffffffffffffffffff166113d66119d1565b73ffffffffffffffffffffffffffffffffffffffff16141561144c576040517f08c379a0000000000000000000000000000000000000000000000000000000008152600401808060200182810382526029815260200180612b116029913960400191505060405180910390611449612536565b50505b80600260006114596119d1565b73ffffffffffffffffffffffffffffffffffffffff1673ffffffffffffffffffffffffffffffffffffffff16815260200190815260200160002060008473ffffffffffffffffffffffffffffffffffffffff1673ffffffffffffffffffffffffffffffffffffffff16815260200190815260200160002060006101000a816114df6125a4565b8160ff021916908315150217906114f4612607565b5050508173ffffffffffffffffffffffffffffffffffffffff166115166119d1565b73ffffffffffffffffffffffffffffffffffffffff167f17307eab39ab6107e8899845ad3d59bd9653f200f220920489ca2b5937696c318360405180821515815260200191505060405180910390a35050565b6000600260008473ffffffffffffffffffffffffffffffffffffffff1673ffffffffffffffffffffffffffffffffffffffff16815260200190815260200160002060008373ffffffffffffffffffffffffffffffffffffffff1673ffffffffffffffffffffffffffffffffffffffff1681526020019081526020016000206000906115f26125a4565b906101000a900460ff16905092915050565b600073ffffffffffffffffffffffffffffffffffffffff168473ffffffffffffffffffffffffffffffffffffffff161415611693576040517f08c379a0000000000000000000000000000000000000000000000000000000008152600401808060200182810382526025815260200180612a906025913960400191505060405180910390611690612536565b50505b61169b6119d1565b73ffffffffffffffffffffffffffffffffffffffff168573ffffffffffffffffffffffffffffffffffffffff1614806116e157506116e0856116db6119d1565b611569565b5b61173f576040517f08c379a0000000000000000000000000000000000000000000000000000000008152600401808060200182810382526029815260200180612a67602991396040019150506040518091039061173c612536565b50505b60006117496119d1565b905061176981878761175a88612149565b61176388612149565b876119e1565b6117ed836040518060600160405280602a8152602001612ae7602a91396001600088815260200190815260200160002060008a73ffffffffffffffffffffffffffffffffffffffff1673ffffffffffffffffffffffffffffffffffffffff1681526020019081526020016000206117de6125a4565b6119e99092919063ffffffff16565b6001600086815260200190815260200160002060008873ffffffffffffffffffffffffffffffffffffffff1673ffffffffffffffffffffffffffffffffffffffff1681526020019081526020016000208190611847612607565b5050506118b4836001600087815260200190815260200160002060008873ffffffffffffffffffffffffffffffffffffffff1673ffffffffffffffffffffffffffffffffffffffff1681526020019081526020016000206118a66125a4565b611aac90919063ffffffff16565b6001600086815260200190815260200160002060008773ffffffffffffffffffffffffffffffffffffffff1673ffffffffffffffffffffffffffffffffffffffff168152602001908152602001600020819061190e612607565b5050508473ffffffffffffffffffffffffffffffffffffffff168673ffffffffffffffffffffffffffffffffffffffff168273ffffffffffffffffffffffffffffffffffffffff167fc3d58168c5ae7397731d063d5bbf3d657854427343f4c083240f7aacaa2d0f628787604051808381526020018281526020019250505060405180910390a46119a38187878787876121c3565b505050505050565b600181600001600082826119bd6125a4565b0192505081906119cb612607565b50505050565b60005a6119dc61266c565b905090565b505050505050565b6000838311158290611a9f576040517f08c379a00000000000000000000000000000000000000000000000000000000081526004018080602001828103825283818151815260200191508051906020019080838360005b83811015611a5b578082015181840152602081019050611a40565b50505050905090810190601f168015611a885780820380516001836020036101000a031916815260200191505b509250505060405180910390611a9c612536565b50505b5082840390509392505050565b600080828401905083811015611b33576040517f08c379a000000000000000000000000000000000000000000000000000000000815260040180806020018281038252601b8152602001807f536166654d6174683a206164646974696f6e206f766572666c6f77000000000081525060200191505060405180910390611b30612536565b50505b8091505092915050565b611b5c8473ffffffffffffffffffffffffffffffffffffffff1661251c565b15611f10578373ffffffffffffffffffffffffffffffffffffffff1663bc197c8187878686866040518663ffffffff1660e01b8152600401808673ffffffffffffffffffffffffffffffffffffffff1681526020018573ffffffffffffffffffffffffffffffffffffffff168152602001806020018060200180602001848103845287818151815260200191508051906020019060200280838360005b83811015611c14578082015181840152602081019050611bf9565b50505050905001848103835286818151815260200191508051906020019060200280838360005b83811015611c56578082015181840152602081019050611c3b565b50505050905001848103825285818151815260200191508051906020019080838360005b83811015611c95578082015181840152602081019050611c7a565b50505050905090810190601f168015611cc25780820380516001836020036101000a031916815260200191505b509850505050505050505060206040518083038160008780611ce2612782565b158015611cf757600080611cf4612536565b50505b505a611d016127e5565b505050505050925050508015611d4157506040513d6020811015611d2d57600080611d2a612536565b50505b810190808051906020019092919050505060015b611e6757611d4d612929565b80611d585750611e08565b806040517f08c379a00000000000000000000000000000000000000000000000000000000081526004018080602001828103825283818151815260200191508051906020019080838360005b83811015611dbf578082015181840152602081019050611da4565b50505050905090810190601f168015611dec5780820380516001836020036101000a031916815260200191505b509250505060405180910390611e00612536565b505050611e62565b6040517f08c379a00000000000000000000000000000000000000000000000000000000081526004018080602001828103825260348152602001806129e06034913960400191505060405180910390611e5f612536565b50505b611f0f565b63bc197c8160e01b7bffffffffffffffffffffffffffffffffffffffffffffffffffffffff1916817bffffffffffffffffffffffffffffffffffffffffffffffffffffffff191614611f0d576040517f08c379a0000000000000000000000000000000000000000000000000000000008152600401808060200182810382526028815260200180612a146028913960400191505060405180910390611f0a612536565b50505b505b5b505050505050565b600081600001611f266125a4565b9050919050565b600073ffffffffffffffffffffffffffffffffffffffff168473ffffffffffffffffffffffffffffffffffffffff161415611fbc576040517f08c379a0000000000000000000000000000000000000000000000000000000008152600401808060200182810382526021815260200180612b8b6021913960400191505060405180910390611fb9612536565b50505b6000611fc66119d1565b9050611fe781600087611fd888612149565b611fe188612149565b876119e1565b612051836001600087815260200190815260200160002060008873ffffffffffffffffffffffffffffffffffffffff1673ffffffffffffffffffffffffffffffffffffffff1681526020019081526020016000206120436125a4565b611aac90919063ffffffff16565b6001600086815260200190815260200160002060008773ffffffffffffffffffffffffffffffffffffffff1673ffffffffffffffffffffffffffffffffffffffff16815260200190815260200160002081906120ab612607565b5050508473ffffffffffffffffffffffffffffffffffffffff16600073ffffffffffffffffffffffffffffffffffffffff168273ffffffffffffffffffffffffffffffffffffffff167fc3d58168c5ae7397731d063d5bbf3d657854427343f4c083240f7aacaa2d0f628787604051808381526020018281526020019250505060405180910390a4612142816000878787876121c3565b5050505050565b60606000600167ffffffffffffffff8111801561216e5760008061216b612536565b50505b5060405190808252806020026020018201604052801561219d5781602001602082028036833780820191505090505b50905082816000815181106121ae57fe5b60200260200101818152505080915050919050565b6121e28473ffffffffffffffffffffffffffffffffffffffff1661251c565b15612514578373ffffffffffffffffffffffffffffffffffffffff1663f23a6e6187878686866040518663ffffffff1660e01b8152600401808673ffffffffffffffffffffffffffffffffffffffff1681526020018573ffffffffffffffffffffffffffffffffffffffff16815260200184815260200183815260200180602001828103825283818151815260200191508051906020019080838360005b8381101561229b578082015181840152602081019050612280565b50505050905090810190601f1680156122c85780820380516001836020036101000a031916815260200191505b509650505050505050602060405180830381600087806122e6612782565b1580156122fb576000806122f8612536565b50505b505a6123056127e5565b50505050505092505050801561234557506040513d60208110156123315760008061232e612536565b50505b810190808051906020019092919050505060015b61246b57612351612929565b8061235c575061240c565b806040517f08c379a00000000000000000000000000000000000000000000000000000000081526004018080602001828103825283818151815260200191508051906020019080838360005b838110156123c35780820151818401526020810190506123a8565b50505050905090810190601f1680156123f05780820380516001836020036101000a031916815260200191505b509250505060405180910390612404612536565b505050612466565b6040517f08c379a00000000000000000000000000000000000000000000000000000000081526004018080602001828103825260348152602001806129e06034913960400191505060405180910390612463612536565b50505b612513565b63f23a6e6160e01b7bffffffffffffffffffffffffffffffffffffffffffffffffffffffff1916817bffffffffffffffffffffffffffffffffffffffffffffffffffffffff191614612511576040517f08c379a0000000000000000000000000000000000000000000000000000000008152600401808060200182810382526028815260200180612a14602891396040019150506040518091039061250e612536565b50505b505b5b505050505050565b60008082612528612782565b905060008111915050919050565b632a2a7adb598160e01b8152600481016020815285602082015260005b86811015612571578086015181604084010152602081019050612553565b506020828760640184336000905af158600e01573d6000803e3d6000fd5b3d6001141558600a015760016000f35b505050565b6303daa959598160e01b8152836004820152602081602483336000905af158600e01573d6000803e3d6000fd5b3d6001141558600a015760016000f35b8051935060005b6040811015612602576000818301526020810190506125e8565b505050565b6322bd64c0598160e01b8152836004820152846024820152600081604483336000905af158600e01573d6000803e3d6000fd5b3d6001141558600a015760016000f35b60005b60408110156126675760008183015260208101905061264d565b505050565b6373509064598160e01b8152602081600483336000905af158600e01573d6000803e3d6000fd5b3d6001141558600a015760016000f35b8051935060005b60408110156126c4576000818301526020810190506126aa565b505050565b82806126d36125a4565b600181600116156101000203166002900490600052602060002090601f01602090048101928261270f57600085612708612607565b5050612771565b82601f1061273157805160ff1916838001178561272a612607565b5050612771565b82800160010185612740612607565b50508215612771579182015b828111156127705782518261275f612607565b50509160200191906001019061274c565b5b50905061277e91906128e5565b5090565b638435035b598160e01b8152836004820152602081602483336000905af158600e01573d6000803e3d6000fd5b3d6001141558600a015760016000f35b8051935060005b60408110156127e0576000818301526020810190506127c6565b505050565b6385979f76598160e01b8152612824565b600081905081831115612807578290505b92915050565b60008190508183101561281e578290505b92915050565b836004820152846024820152606060448201528760648201526084810160005b8981101561285f578089015181830152602081019050612844565b506060828a60a40184336000905af158600e01573d6000803e3d6000fd5b3d6001141558600a015760016000f35b815160408301513d6000853e8c8c82606087013350600060045af150596128b48e3d61280d565b8d016128c081876127f6565b5b828110156128d857600081526020810190506128c1565b50839e5050505050505050565b5b80821115612907576000816000906128fc612607565b5050506001016128e6565b5090565b6000601f19601f8301169050919050565b60008160e01c9050919050565b600060443d1015612939576129dc565b60046000803e61294a60005161291c565b6308c379a0811461295b57506129dc565b60405160043d036004823e80513d602482011167ffffffffffffffff82111715612987575050506129dc565b808201805167ffffffffffffffff8111156129a65750505050506129dc565b8060208301013d85018111156129c1575050505050506129dc565b6129ca8261290b565b60208401016040528296505050505050505b9056fe455243313135353a207472616e7366657220746f206e6f6e2045524331313535526563656976657220696d706c656d656e746572455243313135353a204552433131353552656365697665722072656a656374656420746f6b656e73455243313135353a2062616c616e636520717565727920666f7220746865207a65726f2061646472657373455243313135353a2063616c6c6572206973206e6f74206f776e6572206e6f7220617070726f766564455243313135353a207472616e7366657220746f20746865207a65726f2061646472657373455243313135353a207472616e736665722063616c6c6572206973206e6f74206f776e6572206e6f7220617070726f766564455243313135353a20696e73756666696369656e742062616c616e636520666f72207472616e73666572455243313135353a2073657474696e6720617070726f76616c2073746174757320666f722073656c66455243313135353a206163636f756e747320616e6420696473206c656e677468206d69736d61746368455243313135353a2069647320616e6420616d6f756e7473206c656e677468206d69736d61746368455243313135353a206d696e7420746f20746865207a65726f2061646472657373",
  "linkReferences": {},
  "deployedLinkReferences": {}
}