{
  "_format": "hh-sol-artifact-1",
  "contractName": "MusicMarket",
  "sourceName": "contracts/MusicMarket.sol",
  "abi": [
    {
      "inputs": [
        {
          "internalType": "address",
          "name": "_currencyTokenAddress",
          "type": "address"
        },
        {
          "internalType": "address",
          "name": "_itemTokenAddress",
          "type": "address"
        }
      ],
      "stateMutability": "nonpayable",
      "type": "constructor"
    },
    {
      "anonymous": false,
      "inputs": [
        {
          "indexed": false,
          "internalType": "uint256",
          "name": "tradeCounter",
          "type": "uint256"
        },
        {
          "indexed": false,
          "internalType": "bytes32",
          "name": "status",
          "type": "bytes32"
        }
      ],
      "name": "TradeStatusChange",
      "type": "event"
    },
    {
      "inputs": [
        {
          "internalType": "uint256",
          "name": "_tradeCounter",
          "type": "uint256"
        }
      ],
      "name": "cancelTrade",
      "outputs": [],
      "stateMutability": "nonpayable",
      "type": "function"
    },
    {
      "inputs": [
        {
          "internalType": "uint256",
          "name": "_tradeCounter",
          "type": "uint256"
        },
        {
          "internalType": "uint256",
          "name": "_amount",
          "type": "uint256"
        }
      ],
      "name": "executeTrade",
      "outputs": [],
      "stateMutability": "payable",
      "type": "function"
    },
    {
      "inputs": [],
      "name": "marketAddress",
      "outputs": [
        {
          "internalType": "address",
          "name": "",
          "type": "address"
        }
      ],
      "stateMutability": "view",
      "type": "function"
    },
    {
      "inputs": [
        {
          "internalType": "address",
          "name": "operator",
          "type": "address"
        },
        {
          "internalType": "address",
          "name": "from",
          "type": "address"
        },
        {
          "internalType": "uint256[]",
          "name": "ids",
          "type": "uint256[]"
        },
        {
          "internalType": "uint256[]",
          "name": "values",
          "type": "uint256[]"
        },
        {
          "internalType": "bytes",
          "name": "data",
          "type": "bytes"
        }
      ],
      "name": "onERC1155BatchReceived",
      "outputs": [
        {
          "internalType": "bytes4",
          "name": "",
          "type": "bytes4"
        }
      ],
      "stateMutability": "nonpayable",
      "type": "function"
    },
    {
      "inputs": [
        {
          "internalType": "address",
          "name": "operator",
          "type": "address"
        },
        {
          "internalType": "address",
          "name": "from",
          "type": "address"
        },
        {
          "internalType": "uint256",
          "name": "id",
          "type": "uint256"
        },
        {
          "internalType": "uint256",
          "name": "value",
          "type": "uint256"
        },
        {
          "internalType": "bytes",
          "name": "data",
          "type": "bytes"
        }
      ],
      "name": "onERC1155Received",
      "outputs": [
        {
          "internalType": "bytes4",
          "name": "",
          "type": "bytes4"
        }
      ],
      "stateMutability": "nonpayable",
      "type": "function"
    },
    {
      "inputs": [
        {
          "internalType": "address",
          "name": "_creator",
          "type": "address"
        },
        {
          "internalType": "uint256",
          "name": "_item",
          "type": "uint256"
        },
        {
          "internalType": "uint256",
          "name": "_price",
          "type": "uint256"
        },
        {
          "internalType": "uint256",
          "name": "_amount",
          "type": "uint256"
        }
      ],
      "name": "openTrade",
      "outputs": [],
      "stateMutability": "nonpayable",
      "type": "function"
    },
    {
      "inputs": [
        {
          "internalType": "bytes4",
          "name": "interfaceId",
          "type": "bytes4"
        }
      ],
      "name": "supportsInterface",
      "outputs": [
        {
          "internalType": "bool",
          "name": "",
          "type": "bool"
        }
      ],
      "stateMutability": "view",
      "type": "function"
    },
    {
      "inputs": [],
      "name": "tradeCounter",
      "outputs": [
        {
          "internalType": "uint256",
          "name": "",
          "type": "uint256"
        }
      ],
      "stateMutability": "view",
      "type": "function"
    },
    {
      "inputs": [
        {
          "internalType": "uint256",
          "name": "",
          "type": "uint256"
        }
      ],
      "name": "trades",
      "outputs": [
        {
          "internalType": "address",
          "name": "poster",
          "type": "address"
        },
        {
          "internalType": "address",
          "name": "creator",
          "type": "address"
        },
        {
          "internalType": "uint256",
          "name": "item",
          "type": "uint256"
        },
        {
          "internalType": "uint256",
          "name": "amount",
          "type": "uint256"
        },
        {
          "internalType": "uint256",
          "name": "price",
          "type": "uint256"
        },
        {
          "internalType": "bytes32",
          "name": "status",
          "type": "bytes32"
        }
      ],
      "stateMutability": "view",
      "type": "function"
    }
  ],
  "bytecode": "0x60806040523480156200001c57600080620000196200018c565b50505b506040516200250a3803806200250a833981810160405260408110156200004d576000806200004a6200018c565b50505b81019080805190602001909291908051906020019092919050505081600160006101000a816200007c620001fc565b8173ffffffffffffffffffffffffffffffffffffffff021916908373ffffffffffffffffffffffffffffffffffffffff16021790620000ba62000261565b50505080600260006101000a81620000d1620001fc565b8173ffffffffffffffffffffffffffffffffffffffff021916908373ffffffffffffffffffffffffffffffffffffffff160217906200010f62000261565b5050506000600381906200012262000261565b5050505a62000130620002c8565b600460006101000a8162000143620001fc565b8173ffffffffffffffffffffffffffffffffffffffff021916908373ffffffffffffffffffffffffffffffffffffffff160217906200018162000261565b505050505062000327565b632a2a7adb598160e01b8152600481016020815285602082015260005b86811015620001c9578086015181604084010152602081019050620001a9565b506020828760640184336000905af158600e01573d6000803e3d6000fd5b3d6001141558600a015760016000f35b505050565b6303daa959598160e01b8152836004820152602081602483336000905af158600e01573d6000803e3d6000fd5b3d6001141558600a015760016000f35b8051935060005b60408110156200025c5760008183015260208101905062000240565b505050565b6322bd64c0598160e01b8152836004820152846024820152600081604483336000905af158600e01573d6000803e3d6000fd5b3d6001141558600a015760016000f35b60005b6040811015620002c357600081830152602081019050620002a7565b505050565b6373509064598160e01b8152602081600483336000905af158600e01573d6000803e3d6000fd5b3d6001141558600a015760016000f35b8051935060005b6040811015620003225760008183015260208101905062000306565b505050565b6121d380620003376000396000f3fe6080604052600436106100865760003560e01c806359b6dd541161005957806359b6dd5414610254578063660d15b5146102d55780639562364114610309578063bc197c8114610353578063f23a6e611461055957610086565b806301ffc9a71461009457806309ec6cc7146101165780631e6c598e1461016357806326fbd1d614610213575b600080610091611d95565b50505b3480156100a9576000806100a6611d95565b50505b506100fe600480360360208110156100c9576000806100c6611d95565b50505b8101908080357bffffffffffffffffffffffffffffffffffffffffffffffffffffffff19169060200190929190505050610693565b60405180821515815260200191505060405180910390f35b34801561012b57600080610128611d95565b50505b506101616004803603602081101561014b57600080610148611d95565b50505b81019080803590602001909291905050506106fd565b005b34801561017857600080610175611d95565b50505b506101ae6004803603602081101561019857600080610195611d95565b50505b8101908080359060200190929190505050610b73565b604051808773ffffffffffffffffffffffffffffffffffffffff1681526020018673ffffffffffffffffffffffffffffffffffffffff168152602001858152602001848152602001838152602001828152602001965050505050505060405180910390f35b610252600480360360408110156102325760008061022f611d95565b50505b810190808035906020019092919080359060200190929190505050610c19565b005b34801561026957600080610266611d95565b50505b506102d36004803603608081101561028957600080610286611d95565b50505b81019080803573ffffffffffffffffffffffffffffffffffffffff1690602001909291908035906020019092919080359060200190929190803590602001909291905050506115cb565b005b3480156102ea576000806102e7611d95565b50505b506102f3611aef565b6040518082815260200191505060405180910390f35b34801561031e5760008061031b611d95565b50505b50610327611afc565b604051808273ffffffffffffffffffffffffffffffffffffffff16815260200191505060405180910390f35b34801561036857600080610365611d95565b50505b50610524600480360360a081101561038857600080610385611d95565b50505b81019080803573ffffffffffffffffffffffffffffffffffffffff169060200190929190803573ffffffffffffffffffffffffffffffffffffffff169060200190929190803590602001906401000000008111156103ee576000806103eb611d95565b50505b82018360208201111561040957600080610406611d95565b50505b8035906020019184602083028401116401000000008311171561043457600080610431611d95565b50505b90919293919293908035906020019064010000000081111561045e5760008061045b611d95565b50505b82018360208201111561047957600080610476611d95565b50505b803590602001918460208302840111640100000000831117156104a4576000806104a1611d95565b50505b9091929391929390803590602001906401000000008111156104ce576000806104cb611d95565b50505b8201836020820111156104e9576000806104e6611d95565b50505b8035906020019184600183028401116401000000008311171561051457600080610511611d95565b50505b9091929391929390505050611b29565b60405180827bffffffffffffffffffffffffffffffffffffffffffffffffffffffff1916815260200191505060405180910390f35b34801561056e5760008061056b611d95565b50505b5061065e600480360360a081101561058e5760008061058b611d95565b50505b81019080803573ffffffffffffffffffffffffffffffffffffffff169060200190929190803573ffffffffffffffffffffffffffffffffffffffff16906020019092919080359060200190929190803590602001909291908035906020019064010000000081111561060857600080610605611d95565b50505b82018360208201111561062357600080610620611d95565b50505b8035906020019184600183028401116401000000008311171561064e5760008061064b611d95565b50505b9091929391929390505050611b41565b60405180827bffffffffffffffffffffffffffffffffffffffffffffffffffffffff1916815260200191505060405180910390f35b60007f01ffc9a7000000000000000000000000000000000000000000000000000000007bffffffffffffffffffffffffffffffffffffffffffffffffffffffff1916827bffffffffffffffffffffffffffffffffffffffffffffffffffffffff1916149050919050565b60008060008381526020019081526020016000206040518060c00160405290816000820160009061072c611e03565b906101000a900473ffffffffffffffffffffffffffffffffffffffff1673ffffffffffffffffffffffffffffffffffffffff1673ffffffffffffffffffffffffffffffffffffffff16815260200160018201600090610789611e03565b906101000a900473ffffffffffffffffffffffffffffffffffffffff1673ffffffffffffffffffffffffffffffffffffffff1673ffffffffffffffffffffffffffffffffffffffff168152602001600282016107e3611e03565b8152602001600382016107f4611e03565b815260200160048201610805611e03565b815260200160058201610816611e03565b815250509050806000015173ffffffffffffffffffffffffffffffffffffffff165a610840611e66565b73ffffffffffffffffffffffffffffffffffffffff16146108b5576040517f08c379a000000000000000000000000000000000000000000000000000000000815260040180806020018281038252602681526020018061218c60269139604001915050604051809103906108b2611d95565b50505b7f4f50454e000000000000000000000000000000000000000000000000000000008160a0015114610957576040517f08c379a00000000000000000000000000000000000000000000000000000000081526004018080602001828103825260128152602001807f5472616465206973206e6f74206f70656e2e000000000000000000000000000081525060200191505060405180910390610954611d95565b50505b6002600090610964611e03565b906101000a900473ffffffffffffffffffffffffffffffffffffffff1673ffffffffffffffffffffffffffffffffffffffff1663f242432a5a63996d79a5598160e01b8152602081600483336000905af158600e01573d6000803e3d6000fd5b3d6001141558600a015760016000f35b8051925060005b60408110156109f5576000818301526020810190506109db565b5050508360000151846040015185606001516040518563ffffffff1660e01b8152600401808573ffffffffffffffffffffffffffffffffffffffff1681526020018473ffffffffffffffffffffffffffffffffffffffff168152602001838152602001828152602001806020018281038252600081526020019550505050505060006040518083038160008780610a8a611ec3565b158015610a9f57600080610a9c611d95565b50505b505a610aa9611f26565b505050505050158015610ac9573d6000803e3d6000610ac6611d95565b50505b505050507f43414e43454c4c454400000000000000000000000000000000000000000000006000808481526020019081526020016000206005018190610b0d612026565b5050507f4d38ed2c5ea671a5ccddc331f0ebebd94a60aaf6e572543497485d4d148f9edf8260405180828152602001807f43414e43454c4c4544000000000000000000000000000000000000000000000081525060200191505060405180910390a15050565b600060205280600052604060002060009150905080600001600090610b96611e03565b906101000a900473ffffffffffffffffffffffffffffffffffffffff169080600101600090610bc3611e03565b906101000a900473ffffffffffffffffffffffffffffffffffffffff169080600201610bed611e03565b9080600301610bfa611e03565b9080600401610c07611e03565b9080600501610c14611e03565b905086565b60008060008481526020019081526020016000206040518060c001604052908160008201600090610c48611e03565b906101000a900473ffffffffffffffffffffffffffffffffffffffff1673ffffffffffffffffffffffffffffffffffffffff1673ffffffffffffffffffffffffffffffffffffffff16815260200160018201600090610ca5611e03565b906101000a900473ffffffffffffffffffffffffffffffffffffffff1673ffffffffffffffffffffffffffffffffffffffff1673ffffffffffffffffffffffffffffffffffffffff16815260200160028201610cff611e03565b815260200160038201610d10611e03565b815260200160048201610d21611e03565b815260200160058201610d32611e03565b8152505090508181606001511015610dbb576040517f08c379a000000000000000000000000000000000000000000000000000000000815260040180806020018281038252601b8152602001807f696e73756666696369656e7420616d6f756e74206f66204e465421000000000081525060200191505060405180910390610db8611d95565b50505b7f4f50454e000000000000000000000000000000000000000000000000000000008160a0015114610e5d576040517f08c379a00000000000000000000000000000000000000000000000000000000081526004018080602001828103825260128152602001807f5472616465206973206e6f74206f70656e2e000000000000000000000000000081525060200191505060405180910390610e5a611d95565b50505b6000610e76838360800151611b5790919063ffffffff16565b90506000610ea26103e8610e94601985611b5790919063ffffffff16565b611be690919063ffffffff16565b90506000610ece6103e8610ec0601986611b5790919063ffffffff16565b611be690919063ffffffff16565b90506000610ef7610ee88385611c7890919063ffffffff16565b85611d0990919063ffffffff16565b90506001600090610f06611e03565b906101000a900473ffffffffffffffffffffffffffffffffffffffff1673ffffffffffffffffffffffffffffffffffffffff166323b872dd5a610f47611e66565b8760000151846040518463ffffffff1660e01b8152600401808473ffffffffffffffffffffffffffffffffffffffff1681526020018373ffffffffffffffffffffffffffffffffffffffff168152602001828152602001935050505060206040518083038160008780610fb8611ec3565b158015610fcd57600080610fca611d95565b50505b505a610fd7611f26565b505050505050158015610ff7573d6000803e3d6000610ff4611d95565b50505b505050506040513d602081101561101657600080611013611d95565b50505b8101908080519060200190929190505050506001600090611035611e03565b906101000a900473ffffffffffffffffffffffffffffffffffffffff1673ffffffffffffffffffffffffffffffffffffffff166323b872dd5a611076611e66565b8760200151866040518463ffffffff1660e01b8152600401808473ffffffffffffffffffffffffffffffffffffffff1681526020018373ffffffffffffffffffffffffffffffffffffffff1681526020018281526020019350505050602060405180830381600087806110e7611ec3565b1580156110fc576000806110f9611d95565b50505b505a611106611f26565b505050505050158015611126573d6000803e3d6000611123611d95565b50505b505050506040513d602081101561114557600080611142611d95565b50505b8101908080519060200190929190505050506001600090611164611e03565b906101000a900473ffffffffffffffffffffffffffffffffffffffff1673ffffffffffffffffffffffffffffffffffffffff166323b872dd5a6111a5611e66565b60046000906111b2611e03565b906101000a900473ffffffffffffffffffffffffffffffffffffffff16856040518463ffffffff1660e01b8152600401808473ffffffffffffffffffffffffffffffffffffffff1681526020018373ffffffffffffffffffffffffffffffffffffffff16815260200182815260200193505050506020604051808303816000878061123b611ec3565b1580156112505760008061124d611d95565b50505b505a61125a611f26565b50505050505015801561127a573d6000803e3d6000611277611d95565b50505b505050506040513d602081101561129957600080611296611d95565b50505b81019080805190602001909291905050505060026000906112b8611e03565b906101000a900473ffffffffffffffffffffffffffffffffffffffff1673ffffffffffffffffffffffffffffffffffffffff1663f242432a5a63996d79a5598160e01b8152602081600483336000905af158600e01573d6000803e3d6000fd5b3d6001141558600a015760016000f35b8051925060005b60408110156113495760008183015260208101905061132f565b5050505a611355611e66565b88604001518a6040518563ffffffff1660e01b8152600401808573ffffffffffffffffffffffffffffffffffffffff1681526020018473ffffffffffffffffffffffffffffffffffffffff1681526020018381526020018281526020018060200182810382526000815260200195505050505050600060405180830381600087806113de611ec3565b1580156113f3576000806113f0611d95565b50505b505a6113fd611f26565b50505050505015801561141d573d6000803e3d600061141a611d95565b50505b505050508560008089815260200190815260200160002060030161143f611e03565b14156114ec577f45584543555445440000000000000000000000000000000000000000000000006000808981526020019081526020016000206005018190611485612026565b5050507f4d38ed2c5ea671a5ccddc331f0ebebd94a60aaf6e572543497485d4d148f9edf8760405180828152602001807f455845435554454400000000000000000000000000000000000000000000000081525060200191505060405180910390a16115c2565b856000808981526020019081526020016000206003016000828261150e611e03565b03925050819061151c612026565b5050507f4f50454e00000000000000000000000000000000000000000000000000000000600080898152602001908152602001600020600501819061155f612026565b5050507f4d38ed2c5ea671a5ccddc331f0ebebd94a60aaf6e572543497485d4d148f9edf8760405180828152602001807f4f50454e0000000000000000000000000000000000000000000000000000000081525060200191505060405180910390a15b50505050505050565b8060026000906115d9611e03565b906101000a900473ffffffffffffffffffffffffffffffffffffffff1673ffffffffffffffffffffffffffffffffffffffff1662fdd58e5a611619611e66565b866040518363ffffffff1660e01b8152600401808373ffffffffffffffffffffffffffffffffffffffff168152602001828152602001925050506020604051808303818680611666611ec3565b15801561167b57600080611678611d95565b50505b505a61168561208b565b50505050501580156116a4573d6000803e3d60006116a1611d95565b50505b505050506040513d60208110156116c3576000806116c0611d95565b50505b81019080805190602001909291905050501015611751576040517f08c379a000000000000000000000000000000000000000000000000000000000815260040180806020018281038252601b8152602001807f696e73756666696369656e7420616d6f756e74206f66204e46542100000000008152506020019150506040518091039061174e611d95565b50505b600260009061175e611e03565b906101000a900473ffffffffffffffffffffffffffffffffffffffff1673ffffffffffffffffffffffffffffffffffffffff1663f242432a5a61179f611e66565b5a63996d79a5598160e01b8152602081600483336000905af158600e01573d6000803e3d6000fd5b3d6001141558600a015760016000f35b8051925060005b60408110156117f8576000818301526020810190506117de565b50505086856040518563ffffffff1660e01b8152600401808573ffffffffffffffffffffffffffffffffffffffff1681526020018473ffffffffffffffffffffffffffffffffffffffff168152602001838152602001828152602001806020018281038252600081526020019550505050505060006040518083038160008780611880611ec3565b15801561189557600080611892611d95565b50505b505a61189f611f26565b5050505050501580156118bf573d6000803e3d60006118bc611d95565b50505b505050506040518060c001604052805a6118d7611e66565b73ffffffffffffffffffffffffffffffffffffffff1681526020018573ffffffffffffffffffffffffffffffffffffffff1681526020018481526020018281526020018381526020017f4f50454e000000000000000000000000000000000000000000000000000000008152506000806003611951611e03565b815260200190815260200160002060008201518160000160006101000a81611977611e03565b8173ffffffffffffffffffffffffffffffffffffffff021916908373ffffffffffffffffffffffffffffffffffffffff160217906119b3612026565b50505060208201518160010160006101000a816119ce611e03565b8173ffffffffffffffffffffffffffffffffffffffff021916908373ffffffffffffffffffffffffffffffffffffffff16021790611a0a612026565b505050604082015181600201611a1e612026565b5050606082015181600301611a31612026565b5050608082015181600401611a44612026565b505060a082015181600501611a57612026565b50509050506003600081611a69611e03565b80929190600101919050611a7b612026565b5050507f4d38ed2c5ea671a5ccddc331f0ebebd94a60aaf6e572543497485d4d148f9edf60016003611aab611e03565b0360405180828152602001807f4f50454e0000000000000000000000000000000000000000000000000000000081525060200191505060405180910390a150505050565b6003611af9611e03565b81565b6004600090611b09611e03565b906101000a900473ffffffffffffffffffffffffffffffffffffffff1681565b600063bc197c8160e01b905098975050505050505050565b600063f23a6e6160e01b90509695505050505050565b600080831415611b6a5760009050611be0565b6000828402905082848281611b7b57fe5b0414611bdb576040517f08c379a00000000000000000000000000000000000000000000000000000000081526004018080602001828103825260218152602001806121b26021913960400191505060405180910390611bd8611d95565b50505b809150505b92915050565b6000808211611c66576040517f08c379a000000000000000000000000000000000000000000000000000000000815260040180806020018281038252601a8152602001807f536166654d6174683a206469766973696f6e206279207a65726f00000000000081525060200191505060405180910390611c63611d95565b50505b818381611c6f57fe5b04905092915050565b600080828401905083811015611cff576040517f08c379a000000000000000000000000000000000000000000000000000000000815260040180806020018281038252601b8152602001807f536166654d6174683a206164646974696f6e206f766572666c6f77000000000081525060200191505060405180910390611cfc611d95565b50505b8091505092915050565b600082821115611d8a576040517f08c379a000000000000000000000000000000000000000000000000000000000815260040180806020018281038252601e8152602001807f536166654d6174683a207375627472616374696f6e206f766572666c6f77000081525060200191505060405180910390611d87611d95565b50505b818303905092915050565b632a2a7adb598160e01b8152600481016020815285602082015260005b86811015611dd0578086015181604084010152602081019050611db2565b506020828760640184336000905af158600e01573d6000803e3d6000fd5b3d6001141558600a015760016000f35b505050565b6303daa959598160e01b8152836004820152602081602483336000905af158600e01573d6000803e3d6000fd5b3d6001141558600a015760016000f35b8051935060005b6040811015611e6157600081830152602081019050611e47565b505050565b6373509064598160e01b8152602081600483336000905af158600e01573d6000803e3d6000fd5b3d6001141558600a015760016000f35b8051935060005b6040811015611ebe57600081830152602081019050611ea4565b505050565b638435035b598160e01b8152836004820152602081602483336000905af158600e01573d6000803e3d6000fd5b3d6001141558600a015760016000f35b8051935060005b6040811015611f2157600081830152602081019050611f07565b505050565b6385979f76598160e01b8152611f65565b600081905081831115611f48578290505b92915050565b600081905081831015611f5f578290505b92915050565b836004820152846024820152606060448201528760648201526084810160005b89811015611fa0578089015181830152602081019050611f85565b506060828a60a40184336000905af158600e01573d6000803e3d6000fd5b3d6001141558600a015760016000f35b815160408301513d6000853e8c8c82606087013350600060045af15059611ff58e3d611f4e565b8d016120018187611f37565b5b828110156120195760008152602081019050612002565b50839e5050505050505050565b6322bd64c0598160e01b8152836004820152846024820152600081604483336000905af158600e01573d6000803e3d6000fd5b3d6001141558600a015760016000f35b60005b60408110156120865760008183015260208101905061206c565b505050565b638540661f598160e01b81526120ca565b6000819050818311156120ad578290505b92915050565b6000819050818310156120c4578290505b92915050565b836004820152846024820152606060448201528660648201526084810160005b888110156121055780880151818301526020810190506120ea565b506060828960a40184336000905af158600e01573d6000803e3d6000fd5b3d6001141558600a015760016000f35b815160408301513d6000853e8b8b82606087013350600060045af1505961215a8d3d6120b3565b8c01612166818761209c565b5b8281101561217e5760008152602081019050612167565b50839d505050505050505056fe54726164652063616e2062652063616e63656c6c6564206f6e6c7920627920706f737465722e536166654d6174683a206d756c7469706c69636174696f6e206f766572666c6f77",
  "linkReferences": {},
  "deployedLinkReferences": {}
}